{
    "contractName": "tickets",
    "abi": [
        {
            "inputs": [
                {
                    "internalType": "uint256[]",
                    "name": "_ticket",
                    "type": "uint256[]"
                }
            ],
            "name": "addTicket",
            "outputs": [],
            "stateMutability": "nonpayable",
            "type": "function"
        },
        {
            "inputs": [],
            "name": "getNumTickets",
            "outputs": [
                {
                    "internalType": "uint256",
                    "name": "",
                    "type": "uint256"
                }
            ],
            "stateMutability": "view",
            "type": "function"
        }
    ],
    "bytecode": "608060405234801561001057600080fd5b50610234806100206000396000f3fe608060405234801561001057600080fd5b50600436106100365760003560e01c80630b5adfff1461003b578063d7a70d7514610050575b600080fd5b60005460405190815260200160405180910390f35b61006361005e36600461012a565b610065565b005b8060008260008151811061007b5761007b6101e8565b602002602001015181548110610093576100936101e8565b9060005260206000200190805190602001906100b09291906100b4565b5050565b8280548282559060005260206000209081019282156100ef579160200282015b828111156100ef5782518255916020019190600101906100d4565b506100fb9291506100ff565b5090565b5b808211156100fb5760008155600101610100565b634e487b7160e01b600052604160045260246000fd5b6000602080838503121561013d57600080fd5b823567ffffffffffffffff8082111561015557600080fd5b818501915085601f83011261016957600080fd5b81358181111561017b5761017b610114565b8060051b604051601f19603f830116810181811085821117156101a0576101a0610114565b6040529182528482019250838101850191888311156101be57600080fd5b938501935b828510156101dc578435845293850193928501926101c3565b98975050505050505050565b634e487b7160e01b600052603260045260246000fdfea26469706673582212206266babf4c4c3fd94790f1d4fdd03762f728aecc6b31e44d0645178168578a3864736f6c634300080d0033",
    "sourcePath": "/home/jpalazuelos/projects/tickets/ganache/artifacts/reportes.sol",
    "compiler": {
        "name": "solc",
        "version": "0.8.13+commit.abaa5c0e"
    },
    "functionHashes": {
        "addTicket(uint256[])": "d7a70d75",
        "getNumTickets()": "0b5adfff"
    },
    "gasEstimates": {
        "creation": {
            "codeDepositCost": "112800",
            "executionCost": "159",
            "totalCost": "112959"
        },
        "external": {
            "addTicket(uint256[])": "infinite",
            "getNumTickets()": "2246"
        }
    }
}