{
    "contractName": "ticketsContract",
    "abi": [
        {
            "inputs": [
                {
                    "internalType": "uint256",
                    "name": "_folio",
                    "type": "uint256"
                },
                {
                    "internalType": "string",
                    "name": "_department",
                    "type": "string"
                },
                {
                    "internalType": "string",
                    "name": "_incident",
                    "type": "string"
                },
                {
                    "internalType": "string",
                    "name": "_incident_address",
                    "type": "string"
                }
            ],
            "name": "addTicket",
            "outputs": [],
            "stateMutability": "nonpayable",
            "type": "function"
        },
        {
            "inputs": [
                {
                    "internalType": "uint256",
                    "name": "_folio",
                    "type": "uint256"
                }
            ],
            "name": "getTicket",
            "outputs": [
                {
                    "components": [
                        {
                            "internalType": "uint256",
                            "name": "folio",
                            "type": "uint256"
                        },
                        {
                            "internalType": "string",
                            "name": "incident",
                            "type": "string"
                        },
                        {
                            "internalType": "string",
                            "name": "department",
                            "type": "string"
                        },
                        {
                            "internalType": "string",
                            "name": "incident_address",
                            "type": "string"
                        }
                    ],
                    "internalType": "struct ticketsContract.Ticket",
                    "name": "",
                    "type": "tuple"
                }
            ],
            "stateMutability": "view",
            "type": "function"
        }
    ],
    "bytecode": "608060405234801561001057600080fd5b5061061b806100206000396000f3fe608060405234801561001057600080fd5b50600436106100365760003560e01c806350eebceb1461003b5780637dc379fa14610050575b600080fd5b61004e610049366004610448565b610079565b005b61006361005e3660046104da565b610103565b6040516100709190610540565b60405180910390f35b6040805160808101825285815260208082018681528284018690526060830185905260008881528083529390932082518155925180519293926100c2926001850192019061030c565b50604082015180516100de91600284019160209091019061030c565b50606082015180516100fa91600384019160209091019061030c565b50505050505050565b61012e6040518060800160405280600081526020016060815260200160608152602001606081525090565b6000828152602081815260409182902082516080810190935280548352600181018054919284019161015f906105ab565b80601f016020809104026020016040519081016040528092919081815260200182805461018b906105ab565b80156101d85780601f106101ad576101008083540402835291602001916101d8565b820191906000526020600020905b8154815290600101906020018083116101bb57829003601f168201915b505050505081526020016002820180546101f1906105ab565b80601f016020809104026020016040519081016040528092919081815260200182805461021d906105ab565b801561026a5780601f1061023f5761010080835404028352916020019161026a565b820191906000526020600020905b81548152906001019060200180831161024d57829003601f168201915b50505050508152602001600382018054610283906105ab565b80601f01602080910402602001604051908101604052809291908181526020018280546102af906105ab565b80156102fc5780601f106102d1576101008083540402835291602001916102fc565b820191906000526020600020905b8154815290600101906020018083116102df57829003601f168201915b5050505050815250509050919050565b828054610318906105ab565b90600052602060002090601f01602090048101928261033a5760008555610380565b82601f1061035357805160ff1916838001178555610380565b82800160010185558215610380579182015b82811115610380578251825591602001919060010190610365565b5061038c929150610390565b5090565b5b8082111561038c5760008155600101610391565b634e487b7160e01b600052604160045260246000fd5b600082601f8301126103cc57600080fd5b813567ffffffffffffffff808211156103e7576103e76103a5565b604051601f8301601f19908116603f0116810190828211818310171561040f5761040f6103a5565b8160405283815286602085880101111561042857600080fd5b836020870160208301376000602085830101528094505050505092915050565b6000806000806080858703121561045e57600080fd5b84359350602085013567ffffffffffffffff8082111561047d57600080fd5b610489888389016103bb565b9450604087013591508082111561049f57600080fd5b6104ab888389016103bb565b935060608701359150808211156104c157600080fd5b506104ce878288016103bb565b91505092959194509250565b6000602082840312156104ec57600080fd5b5035919050565b6000815180845260005b81811015610519576020818501810151868301820152016104fd565b8181111561052b576000602083870101525b50601f01601f19169290920160200192915050565b6020815281516020820152600060208301516080604084015261056660a08401826104f3565b90506040840151601f198085840301606086015261058483836104f3565b92506060860151915080858403016080860152506105a282826104f3565b95945050505050565b600181811c908216806105bf57607f821691505b6020821081036105df57634e487b7160e01b600052602260045260246000fd5b5091905056fea264697066735822122076833f2ea824116dd204d9dde4213410632dafc5912d37c4023119a475cdf9bb64736f6c634300080d0033",
    "sourcePath": "/home/jpalazuelos/projects/tickets/ganache/artifacts/ticketsContract.sol",
    "compiler": {
        "name": "solc",
        "version": "0.8.13+commit.abaa5c0e"
    },
    "functionHashes": {
        "addTicket(uint256,string,string,string)": "50eebceb",
        "getTicket(uint256)": "7dc379fa"
    },
    "gasEstimates": {
        "creation": {
            "codeDepositCost": "312600",
            "executionCost": "349",
            "totalCost": "312949"
        },
        "external": {
            "addTicket(uint256,string,string,string)": "infinite",
            "getTicket(uint256)": "infinite"
        }
    }
}